{
  "contractName": "Election",
  "abi": [
    {
      "inputs": [],
      "payable": false,
      "stateMutability": "nonpayable",
      "type": "constructor"
    },
    {
      "constant": true,
      "inputs": [],
      "name": "TotalCandidates",
      "outputs": [
        {
          "internalType": "uint256",
          "name": "",
          "type": "uint256"
        }
      ],
      "payable": false,
      "stateMutability": "view",
      "type": "function"
    },
    {
      "constant": true,
      "inputs": [],
      "name": "TotalRecords",
      "outputs": [
        {
          "internalType": "uint256",
          "name": "",
          "type": "uint256"
        }
      ],
      "payable": false,
      "stateMutability": "view",
      "type": "function"
    },
    {
      "constant": true,
      "inputs": [],
      "name": "TotalVotes",
      "outputs": [
        {
          "internalType": "uint256",
          "name": "",
          "type": "uint256"
        }
      ],
      "payable": false,
      "stateMutability": "view",
      "type": "function"
    },
    {
      "constant": true,
      "inputs": [
        {
          "internalType": "uint256",
          "name": "",
          "type": "uint256"
        }
      ],
      "name": "candidates",
      "outputs": [
        {
          "internalType": "uint256",
          "name": "id",
          "type": "uint256"
        },
        {
          "internalType": "string",
          "name": "CandidateName",
          "type": "string"
        },
        {
          "internalType": "string",
          "name": "PartyName",
          "type": "string"
        },
        {
          "internalType": "uint256",
          "name": "VoteCount",
          "type": "uint256"
        }
      ],
      "payable": false,
      "stateMutability": "view",
      "type": "function"
    },
    {
      "constant": true,
      "inputs": [
        {
          "internalType": "address",
          "name": "",
          "type": "address"
        }
      ],
      "name": "voters",
      "outputs": [
        {
          "internalType": "string",
          "name": "voterId",
          "type": "string"
        },
        {
          "internalType": "bool",
          "name": "authorized",
          "type": "bool"
        },
        {
          "internalType": "bool",
          "name": "voted",
          "type": "bool"
        },
        {
          "internalType": "uint256",
          "name": "vote",
          "type": "uint256"
        }
      ],
      "payable": false,
      "stateMutability": "view",
      "type": "function"
    },
    {
      "constant": false,
      "inputs": [
        {
          "internalType": "uint256",
          "name": "_candidateId",
          "type": "uint256"
        }
      ],
      "name": "vote",
      "outputs": [],
      "payable": false,
      "stateMutability": "nonpayable",
      "type": "function"
    }
  ],
  "bytecode": "0x6080604052600080556000600155600060025534801561001e57600080fd5b5061006d6040518060400160405280600b81526020016a149bda1a5d0814185d1a5b60aa1b81525060405180604001604052806003815260200162524a4360e81b8152506100c460201b60201c565b6100bf6040518060400160405280600f81526020016e4e616368696b6574204d6168616c6560881b8152506040518060400160405280600381526020016247504d60e81b8152506100c460201b60201c565b6101e2565b6000805460019081018083556040805160808101825282815260208082018881528284018890526060830187905293865260048152919094208451815591518051929361011993908501929190910190610147565b5060408201518051610135916002840191602090910190610147565b50606082015181600301559050505050565b828054600181600116156101000203166002900490600052602060002090601f016020900481019282601f1061018857805160ff19168380011785556101b5565b828001600101855582156101b5579182015b828111156101b557825182559160200191906001019061019a565b506101c19291506101c5565b5090565b6101df91905b808211156101c157600081556001016101cb565b90565b610511806101f16000396000f3fe608060405234801561001057600080fd5b50600436106100625760003560e01c80630121b93f146100675780632fd73f02146100865780633477ee2e146100a057806352a65211146101a95780638300f7a4146101b1578063a3ec138d146101b9575b600080fd5b6100846004803603602081101561007d57600080fd5b5035610274565b005b61008e6102d1565b60408051918252519081900360200190f35b6100bd600480360360208110156100b657600080fd5b50356102d7565b604051808581526020018060200180602001848152602001838103835286818151815260200191508051906020019080838360005b8381101561010a5781810151838201526020016100f2565b50505050905090810190601f1680156101375780820380516001836020036101000a031916815260200191505b50838103825285518152855160209182019187019080838360005b8381101561016a578181015183820152602001610152565b50505050905090810190601f1680156101975780820380516001836020036101000a031916815260200191505b50965050505050505060405180910390f35b61008e610416565b61008e61041c565b6101df600480360360208110156101cf57600080fd5b50356001600160a01b0316610422565b60405180806020018515151515815260200184151515158152602001838152602001828103825286818151815260200191508051906020019080838360005b8381101561023657818101518382015260200161021e565b50505050905090810190601f1680156102635780820380516001836020036101000a031916815260200191505b509550505050505060405180910390f35b33600090815260036020526040902060010154610100900460ff161561029957600080fd5b6000908152600460209081526040808320600390810180546001908101909155338552925290912001805461ff001916610100179055565b60015481565b6004602090815260009182526040918290208054600180830180548651600293821615610100026000190190911692909204601f8101869004860283018601909652858252919492939092908301828280156103745780601f1061034957610100808354040283529160200191610374565b820191906000526020600020905b81548152906001019060200180831161035757829003601f168201915b50505060028085018054604080516020601f60001961010060018716150201909416959095049283018590048502810185019091528181529596959450909250908301828280156104065780601f106103db57610100808354040283529160200191610406565b820191906000526020600020905b8154815290600101906020018083116103e957829003601f168201915b5050505050908060030154905084565b60005481565b60025481565b60036020908152600091825260409182902080548351601f600260001961010060018616150201909316929092049182018490048402810184019094528084529092918391908301828280156104b95780601f1061048e576101008083540402835291602001916104b9565b820191906000526020600020905b81548152906001019060200180831161049c57829003601f168201915b505050506001830154600290930154919260ff808216936101009092041691508456fea265627a7a723158203c916cfb6f856291b827f76984d2317d10e9169804525e0d0f96688423b5507064736f6c63430005100032",
  "source": "pragma solidity ^0.5.0;\r\ncontract Election{\r\n    \r\n    struct Candidate{\r\n        uint id;\r\n        string CandidateName;\r\n        string PartyName;\r\n        uint VoteCount;\r\n    }\r\n\r\n    struct Voter{\r\n        string voterId;\r\n        bool authorized;\r\n        bool voted;\r\n        uint vote;\r\n    }\r\n    \r\n    uint public TotalCandidates=0;\r\n    uint public TotalVotes=0;\r\n    uint public TotalRecords=0;\r\n\r\n    mapping(address=>Voter) public voters;\r\n    mapping(uint =>Candidate) public candidates;\r\n    \r\n    constructor() public{\r\n        addCandidates(\"Rohit Patil\",\"RJC\");\r\n        addCandidates(\"Nachiket Mahale\",\"GPM\");\r\n    }\r\n    \r\n    // function authorize_voter(string memory _VtrID,string memory AdrID,string memory mblNo,string memory emlID) public{\r\n    //     for(uint i=0;i<=TotalRecords;i++)\r\n    //     {\r\n    //         if(Voter_ID[i]==_VtrID && AdharCard[i]==AdrID && mobileNo[i]==mblNo && emailID[i]==emlID) \r\n    //         {\r\n    //             found=true;\r\n    //         }\r\n    //     }\r\n    // }\r\n    // function advacedvalidation(string memory _ID) public returns (bool){\r\n    //     for(uint i=0;i<=TotalVotes;i++)\r\n    //     {\r\n    //         if(VotedList[i]== _ID)\r\n    //         {\r\n    //             return false;\r\n    //         }\r\n    //         return true;\r\n    //     }\r\n    // }\r\n    function addCandidates(string memory name,string memory party) private{\r\n        TotalCandidates++;\r\n        candidates[TotalCandidates]=Candidate(TotalCandidates,name,party,0);\r\n    }\r\n    function vote(uint _candidateId) public {\r\n        // require(found);\r\n        require(!voters[msg.sender].voted);\r\n        // require(advacedvalidation(voters[msg.sender].voterId));\r\n        candidates[_candidateId].VoteCount++;\r\n        // VotedList.push(voters[msg.sender].VoterID);\r\n        voters[msg.sender].voted=true;\r\n    }\r\n    // function addRecord(string memory vtrId,string memory AdrID,string memory mblNo,string memory emlId) private{\r\n    //     Voter_ID.push(vtrId);\r\n    //     AdharCard.push(AdrID);\r\n    //     mobileNo.push(mblNo);\r\n    //     emailID.push(emlId);\r\n    //     TotalRecords++;\r\n    // }\r\n}",
  "sourcePath": "D:\\Blockchain Voting System\\contracts\\Election.sol",
  "compiler": {
    "name": "solc",
    "version": "0.5.16+commit.9c3226ce.Emscripten.clang"
  },
  "schemaVersion": "3.4.3",
  "updatedAt": "2021-12-29T17:56:55.042Z",
  "networkType": "ethereum",
  "devdoc": {
    "methods": {}
  },
  "userdoc": {
    "methods": {}
  }
}